{
  "_format": "hh-sol-artifact-1",
  "contractName": "Raffle",
  "sourceName": "contracts/Raffle.sol",
  "abi": [
    {
      "inputs": [
        {
          "internalType": "address",
          "name": "vrfCoordinatorV2",
          "type": "address"
        },
        {
          "internalType": "uint256",
          "name": "entranceFee",
          "type": "uint256"
        },
        {
          "internalType": "bytes32",
          "name": "gasLane",
          "type": "bytes32"
        },
        {
          "internalType": "uint64",
          "name": "subscriptionID",
          "type": "uint64"
        },
        {
          "internalType": "uint32",
          "name": "callbackGasLimit",
          "type": "uint32"
        },
        {
          "internalType": "uint256",
          "name": "interval",
          "type": "uint256"
        }
      ],
      "stateMutability": "nonpayable",
      "type": "constructor"
    },
    {
      "inputs": [
        {
          "internalType": "address",
          "name": "have",
          "type": "address"
        },
        {
          "internalType": "address",
          "name": "want",
          "type": "address"
        }
      ],
      "name": "OnlyCoordinatorCanFulfill",
      "type": "error"
    },
    {
      "inputs": [],
      "name": "Raffle_TransferFailed",
      "type": "error"
    },
    {
      "inputs": [],
      "name": "Raffle__NotEnoughETHEntered",
      "type": "error"
    },
    {
      "inputs": [],
      "name": "Raffle__NotOpen",
      "type": "error"
    },
    {
      "inputs": [
        {
          "internalType": "uint256",
          "name": "currentBalance",
          "type": "uint256"
        },
        {
          "internalType": "uint256",
          "name": "numPlayers",
          "type": "uint256"
        },
        {
          "internalType": "uint256",
          "name": "raffleState",
          "type": "uint256"
        }
      ],
      "name": "Raffle__UpkeepNotNeeded",
      "type": "error"
    },
    {
      "anonymous": false,
      "inputs": [
        {
          "indexed": true,
          "internalType": "address",
          "name": "player",
          "type": "address"
        }
      ],
      "name": "RaffleEnter",
      "type": "event"
    },
    {
      "anonymous": false,
      "inputs": [
        {
          "indexed": false,
          "internalType": "uint256",
          "name": "",
          "type": "uint256"
        }
      ],
      "name": "RequestedRaffleWinner",
      "type": "event"
    },
    {
      "anonymous": false,
      "inputs": [
        {
          "indexed": true,
          "internalType": "address",
          "name": "winner",
          "type": "address"
        }
      ],
      "name": "WinnerPicked",
      "type": "event"
    },
    {
      "inputs": [
        {
          "internalType": "bytes",
          "name": "",
          "type": "bytes"
        }
      ],
      "name": "checkUpkeep",
      "outputs": [
        {
          "internalType": "bool",
          "name": "upkeepNeeded",
          "type": "bool"
        },
        {
          "internalType": "bytes",
          "name": "",
          "type": "bytes"
        }
      ],
      "stateMutability": "view",
      "type": "function"
    },
    {
      "inputs": [],
      "name": "enterRaffle",
      "outputs": [],
      "stateMutability": "payable",
      "type": "function"
    },
    {
      "inputs": [],
      "name": "getEntranceFee",
      "outputs": [
        {
          "internalType": "uint256",
          "name": "",
          "type": "uint256"
        }
      ],
      "stateMutability": "view",
      "type": "function"
    },
    {
      "inputs": [],
      "name": "getInterval",
      "outputs": [
        {
          "internalType": "uint256",
          "name": "",
          "type": "uint256"
        }
      ],
      "stateMutability": "view",
      "type": "function"
    },
    {
      "inputs": [],
      "name": "getLastTimeStamp",
      "outputs": [
        {
          "internalType": "uint256",
          "name": "",
          "type": "uint256"
        }
      ],
      "stateMutability": "view",
      "type": "function"
    },
    {
      "inputs": [],
      "name": "getNumWords",
      "outputs": [
        {
          "internalType": "uint256",
          "name": "",
          "type": "uint256"
        }
      ],
      "stateMutability": "pure",
      "type": "function"
    },
    {
      "inputs": [],
      "name": "getNumberOfPlayers",
      "outputs": [
        {
          "internalType": "uint256",
          "name": "",
          "type": "uint256"
        }
      ],
      "stateMutability": "view",
      "type": "function"
    },
    {
      "inputs": [
        {
          "internalType": "uint256",
          "name": "index",
          "type": "uint256"
        }
      ],
      "name": "getPlayer",
      "outputs": [
        {
          "internalType": "address",
          "name": "",
          "type": "address"
        }
      ],
      "stateMutability": "view",
      "type": "function"
    },
    {
      "inputs": [],
      "name": "getRaffleState",
      "outputs": [
        {
          "internalType": "enum Raffle.RaffleState",
          "name": "",
          "type": "uint8"
        }
      ],
      "stateMutability": "view",
      "type": "function"
    },
    {
      "inputs": [],
      "name": "getRecentWinner",
      "outputs": [
        {
          "internalType": "address",
          "name": "",
          "type": "address"
        }
      ],
      "stateMutability": "view",
      "type": "function"
    },
    {
      "inputs": [],
      "name": "getRequestConfirmation",
      "outputs": [
        {
          "internalType": "uint256",
          "name": "",
          "type": "uint256"
        }
      ],
      "stateMutability": "pure",
      "type": "function"
    },
    {
      "inputs": [
        {
          "internalType": "bytes",
          "name": "",
          "type": "bytes"
        }
      ],
      "name": "performUpkeep",
      "outputs": [],
      "stateMutability": "nonpayable",
      "type": "function"
    },
    {
      "inputs": [
        {
          "internalType": "uint256",
          "name": "requestId",
          "type": "uint256"
        },
        {
          "internalType": "uint256[]",
          "name": "randomWords",
          "type": "uint256[]"
        }
      ],
      "name": "rawFulfillRandomWords",
      "outputs": [],
      "stateMutability": "nonpayable",
      "type": "function"
    }
  ],
  "bytecode": "0x6101606040523480156200001257600080fd5b5060405162001843380380620018438339818101604052810190620000389190620001ad565b858073ffffffffffffffffffffffffffffffffffffffff1660808173ffffffffffffffffffffffffffffffffffffffff1660601b81525050508460a081815250508573ffffffffffffffffffffffffffffffffffffffff1660c08173ffffffffffffffffffffffffffffffffffffffff1660601b815250508360e081815250508267ffffffffffffffff166101008167ffffffffffffffff1660c01b815250508163ffffffff166101208163ffffffff1660e01b815250506000600160156101000a81548160ff02191690836001811115620001195762000118620002b5565b5b0217905550426002819055508061014081815250505050505050506200036b565b6000815190506200014b81620002e9565b92915050565b600081519050620001628162000303565b92915050565b60008151905062000179816200031d565b92915050565b600081519050620001908162000337565b92915050565b600081519050620001a78162000351565b92915050565b60008060008060008060c08789031215620001cd57620001cc620002e4565b5b6000620001dd89828a016200013a565b9650506020620001f089828a0162000168565b95505060406200020389828a0162000151565b94505060606200021689828a0162000196565b93505060806200022989828a016200017f565b92505060a06200023c89828a0162000168565b9150509295509295509295565b6000620002568262000267565b9050919050565b6000819050919050565b600073ffffffffffffffffffffffffffffffffffffffff82169050919050565b6000819050919050565b600063ffffffff82169050919050565b600067ffffffffffffffff82169050919050565b7f4e487b7100000000000000000000000000000000000000000000000000000000600052602160045260246000fd5b600080fd5b620002f48162000249565b81146200030057600080fd5b50565b6200030e816200025d565b81146200031a57600080fd5b50565b620003288162000287565b81146200033457600080fd5b50565b620003428162000291565b81146200034e57600080fd5b50565b6200035c81620002a1565b81146200036857600080fd5b50565b60805160601c60a05160c05160601c60e0516101005160c01c6101205160e01c6101405161145c620003e7600039600081816107e901526108570152600061069b01526000610678015260006106570152600061061b0152600081816102fa01526103f7015260008181610337015261038b015261145c6000f3fe6080604052600436106100c25760003560e01c806353a2c19a1161007f578063c1c244e811610059578063c1c244e814610238578063ca6a9ef814610263578063e55ae4e81461028e578063fd6673f5146102cb576100c2565b806353a2c19a146101a45780636e04ff0d146101cf57806391ad27b41461020d576100c2565b806309bc33a7146100c7578063115cbaf5146100f25780631fe543e31461011d5780632cfcc539146101465780634585e33b14610150578063473f1ddc14610179575b600080fd5b3480156100d357600080fd5b506100dc6102f6565b6040516100e99190611062565b60405180910390f35b3480156100fe57600080fd5b5061010761031e565b6040516101149190611047565b60405180910390f35b34801561012957600080fd5b50610144600480360381019061013f9190610e3b565b610335565b005b61014e6103f5565b005b34801561015c57600080fd5b5061017760048036038101906101729190610d4b565b610564565b005b34801561018557600080fd5b5061018e61076d565b60405161019b9190610f80565b60405180910390f35b3480156101b057600080fd5b506101b9610797565b6040516101c69190611062565b60405180910390f35b3480156101db57600080fd5b506101f660048036038101906101f19190610d98565b6107a6565b604051610204929190610fc4565b60405180910390f35b34801561021957600080fd5b50610222610853565b60405161022f9190611062565b60405180910390f35b34801561024457600080fd5b5061024d61087b565b60405161025a9190611062565b60405180910390f35b34801561026f57600080fd5b50610278610885565b6040516102859190611062565b60405180910390f35b34801561029a57600080fd5b506102b560048036038101906102b09190610de1565b610892565b6040516102c29190610f80565b60405180910390f35b3480156102d757600080fd5b506102e06108d9565b6040516102ed9190611062565b60405180910390f35b60007f0000000000000000000000000000000000000000000000000000000000000000905090565b6000600160159054906101000a900460ff16905090565b7f000000000000000000000000000000000000000000000000000000000000000073ffffffffffffffffffffffffffffffffffffffff163373ffffffffffffffffffffffffffffffffffffffff16146103e757337f00000000000000000000000000000000000000000000000000000000000000006040517f1cf993f40000000000000000000000000000000000000000000000000000000081526004016103de929190610f9b565b60405180910390fd5b6103f182826108e5565b5050565b7f000000000000000000000000000000000000000000000000000000000000000034101561044f576040517fbd4e069500000000000000000000000000000000000000000000000000000000815260040160405180910390fd5b600060018111156104635761046261133c565b5b600160159054906101000a900460ff1660018111156104855761048461133c565b5b146104bc576040517f1425571c00000000000000000000000000000000000000000000000000000000815260040160405180910390fd5b6000339080600181540180825580915050600190039060005260206000200160009091909190916101000a81548173ffffffffffffffffffffffffffffffffffffffff021916908373ffffffffffffffffffffffffffffffffffffffff1602179055503373ffffffffffffffffffffffffffffffffffffffff167f0805e1d667bddb8a95f0f09880cf94f403fb596ce79928d9f29b74203ba284d460405160405180910390a2565b600061057e604051806020016040528060008152506107a6565b509050806105ed5747600080549050600160159054906101000a900460ff1660018111156105af576105ae61133c565b5b6040517f584327aa0000000000000000000000000000000000000000000000000000000081526004016105e49392919061107d565b60405180910390fd5b60018060156101000a81548160ff021916908360018111156106125761061161133c565b5b021790555060007f000000000000000000000000000000000000000000000000000000000000000073ffffffffffffffffffffffffffffffffffffffff16635d3b1d307f00000000000000000000000000000000000000000000000000000000000000007f000000000000000000000000000000000000000000000000000000000000000060037f000000000000000000000000000000000000000000000000000000000000000060016040518663ffffffff1660e01b81526004016106dc959493929190610ff4565b602060405180830381600087803b1580156106f657600080fd5b505af115801561070a573d6000803e3d6000fd5b505050506040513d601f19601f8201168201806040525081019061072e9190610e0e565b90507fcd6e45c8998311cab7e9d4385596cac867e20a0587194b954fa3a731c93ce78b8160405161075f9190611062565b60405180910390a150505050565b6000600160009054906101000a900473ffffffffffffffffffffffffffffffffffffffff16905090565b6000600163ffffffff16905090565b600060606000600160159054906101000a900460ff1660018111156107ce576107cd61133c565b5b600060018111156107e2576107e161133c565b5b14905060007f000000000000000000000000000000000000000000000000000000000000000060025442610816919061115d565b119050600080600080549050119050600080471190508380156108365750825b801561083f5750815b80156108485750805b955050505050915091565b60007f0000000000000000000000000000000000000000000000000000000000000000905090565b6000600254905090565b6000600361ffff16905090565b60008082815481106108a7576108a661136b565b5b9060005260206000200160009054906101000a900473ffffffffffffffffffffffffffffffffffffffff169050919050565b60008080549050905090565b6000808054905082600081518110610900576108ff61136b565b5b602002602001015161091291906112ad565b905060008082815481106109295761092861136b565b5b9060005260206000200160009054906101000a900473ffffffffffffffffffffffffffffffffffffffff16905080600160006101000a81548173ffffffffffffffffffffffffffffffffffffffff021916908373ffffffffffffffffffffffffffffffffffffffff160217905550600067ffffffffffffffff8111156109b2576109b161139a565b5b6040519080825280602002602001820160405280156109e05781602001602082028036833780820191505090505b50600090805190602001906109f6929190610b16565b506000600160156101000a81548160ff02191690836001811115610a1d57610a1c61133c565b5b02179055504260028190555060008173ffffffffffffffffffffffffffffffffffffffff1647604051610a4f90610f6b565b60006040518083038185875af1925050503d8060008114610a8c576040519150601f19603f3d011682016040523d82523d6000602084013e610a91565b606091505b5050905080610acc576040517fba31c4f300000000000000000000000000000000000000000000000000000000815260040160405180910390fd5b8173ffffffffffffffffffffffffffffffffffffffff167f5b690ec4a06fe979403046eaeea5b3ce38524683c3001f662c8b5a829632f7df60405160405180910390a25050505050565b828054828255906000526020600020908101928215610b8f579160200282015b82811115610b8e5782518260006101000a81548173ffffffffffffffffffffffffffffffffffffffff021916908373ffffffffffffffffffffffffffffffffffffffff16021790555091602001919060010190610b36565b5b509050610b9c9190610ba0565b5090565b5b80821115610bb9576000816000905550600101610ba1565b5090565b6000610bd0610bcb846110d9565b6110b4565b90508083825260208201905082856020860282011115610bf357610bf26113d3565b5b60005b85811015610c235781610c098882610d21565b845260208401935060208301925050600181019050610bf6565b5050509392505050565b6000610c40610c3b84611105565b6110b4565b905082815260208101848484011115610c5c57610c5b6113d8565b5b610c6784828561123a565b509392505050565b600082601f830112610c8457610c836113ce565b5b8135610c94848260208601610bbd565b91505092915050565b60008083601f840112610cb357610cb26113ce565b5b8235905067ffffffffffffffff811115610cd057610ccf6113c9565b5b602083019150836001820283011115610cec57610ceb6113d3565b5b9250929050565b600082601f830112610d0857610d076113ce565b5b8135610d18848260208601610c2d565b91505092915050565b600081359050610d308161140f565b92915050565b600081519050610d458161140f565b92915050565b60008060208385031215610d6257610d616113e2565b5b600083013567ffffffffffffffff811115610d8057610d7f6113dd565b5b610d8c85828601610c9d565b92509250509250929050565b600060208284031215610dae57610dad6113e2565b5b600082013567ffffffffffffffff811115610dcc57610dcb6113dd565b5b610dd884828501610cf3565b91505092915050565b600060208284031215610df757610df66113e2565b5b6000610e0584828501610d21565b91505092915050565b600060208284031215610e2457610e236113e2565b5b6000610e3284828501610d36565b91505092915050565b60008060408385031215610e5257610e516113e2565b5b6000610e6085828601610d21565b925050602083013567ffffffffffffffff811115610e8157610e806113dd565b5b610e8d85828601610c6f565b9150509250929050565b610ea081611191565b82525050565b610eaf816111a3565b82525050565b610ebe816111af565b82525050565b6000610ecf82611136565b610ed98185611141565b9350610ee9818560208601611249565b610ef2816113e7565b840191505092915050565b610f0681611228565b82525050565b6000610f19600083611152565b9150610f24826113f8565b600082019050919050565b610f38816111cc565b82525050565b610f47816111fa565b82525050565b610f5681611204565b82525050565b610f6581611214565b82525050565b6000610f7682610f0c565b9150819050919050565b6000602082019050610f956000830184610e97565b92915050565b6000604082019050610fb06000830185610e97565b610fbd6020830184610e97565b9392505050565b6000604082019050610fd96000830185610ea6565b8181036020830152610feb8184610ec4565b90509392505050565b600060a0820190506110096000830188610eb5565b6110166020830187610f5c565b6110236040830186610f2f565b6110306060830185610f4d565b61103d6080830184610f4d565b9695505050505050565b600060208201905061105c6000830184610efd565b92915050565b60006020820190506110776000830184610f3e565b92915050565b60006060820190506110926000830186610f3e565b61109f6020830185610f3e565b6110ac6040830184610f3e565b949350505050565b60006110be6110cf565b90506110ca828261127c565b919050565b6000604051905090565b600067ffffffffffffffff8211156110f4576110f361139a565b5b602082029050602081019050919050565b600067ffffffffffffffff8211156111205761111f61139a565b5b611129826113e7565b9050602081019050919050565b600081519050919050565b600082825260208201905092915050565b600081905092915050565b6000611168826111fa565b9150611173836111fa565b925082821015611186576111856112de565b5b828203905092915050565b600061119c826111da565b9050919050565b60008115159050919050565b6000819050919050565b60008190506111c7826113fb565b919050565b600061ffff82169050919050565b600073ffffffffffffffffffffffffffffffffffffffff82169050919050565b6000819050919050565b600063ffffffff82169050919050565b600067ffffffffffffffff82169050919050565b6000611233826111b9565b9050919050565b82818337600083830152505050565b60005b8381101561126757808201518184015260208101905061124c565b83811115611276576000848401525b50505050565b611285826113e7565b810181811067ffffffffffffffff821117156112a4576112a361139a565b5b80604052505050565b60006112b8826111fa565b91506112c3836111fa565b9250826112d3576112d261130d565b5b828206905092915050565b7f4e487b7100000000000000000000000000000000000000000000000000000000600052601160045260246000fd5b7f4e487b7100000000000000000000000000000000000000000000000000000000600052601260045260246000fd5b7f4e487b7100000000000000000000000000000000000000000000000000000000600052602160045260246000fd5b7f4e487b7100000000000000000000000000000000000000000000000000000000600052603260045260246000fd5b7f4e487b7100000000000000000000000000000000000000000000000000000000600052604160045260246000fd5b600080fd5b600080fd5b600080fd5b600080fd5b600080fd5b600080fd5b6000601f19601f8301169050919050565b50565b6002811061140c5761140b61133c565b5b50565b611418816111fa565b811461142357600080fd5b5056fea26469706673582212206a3a7fe7ee94ad828464cb763d050c6585de6703eae2588760230082104beb1164736f6c63430008070033",
  "linkReferences": {},
  "deployedLinkReferences": {}
}