{
  "_format": "hh-sol-artifact-1",
  "contractName": "Raffle",
  "sourceName": "contracts/Raffle.sol",
  "abi": [
    {
      "inputs": [
        {
          "internalType": "address",
          "name": "vrfCoordinatorV2",
          "type": "address"
        },
        {
          "internalType": "uint256",
          "name": "entranceFee",
          "type": "uint256"
        },
        {
          "internalType": "bytes32",
          "name": "gasLane",
          "type": "bytes32"
        },
        {
          "internalType": "uint64",
          "name": "subscriptionID",
          "type": "uint64"
        },
        {
          "internalType": "uint32",
          "name": "callbackGasLimit",
          "type": "uint32"
        },
        {
          "internalType": "uint256",
          "name": "interval",
          "type": "uint256"
        }
      ],
      "stateMutability": "nonpayable",
      "type": "constructor"
    },
    {
      "inputs": [
        {
          "internalType": "address",
          "name": "have",
          "type": "address"
        },
        {
          "internalType": "address",
          "name": "want",
          "type": "address"
        }
      ],
      "name": "OnlyCoordinatorCanFulfill",
      "type": "error"
    },
    {
      "inputs": [],
      "name": "Raffle_TransferFailed",
      "type": "error"
    },
    {
      "inputs": [],
      "name": "Raffle__NotEnoughETHEntered",
      "type": "error"
    },
    {
      "inputs": [],
      "name": "Raffle__NotOpen",
      "type": "error"
    },
    {
      "inputs": [
        {
          "internalType": "uint256",
          "name": "currentBalance",
          "type": "uint256"
        },
        {
          "internalType": "uint256",
          "name": "numPlayers",
          "type": "uint256"
        },
        {
          "internalType": "uint256",
          "name": "raffleState",
          "type": "uint256"
        }
      ],
      "name": "Raffle__UpkeepNotNeeded",
      "type": "error"
    },
    {
      "anonymous": false,
      "inputs": [
        {
          "indexed": true,
          "internalType": "address",
          "name": "player",
          "type": "address"
        }
      ],
      "name": "RaffleEnter",
      "type": "event"
    },
    {
      "anonymous": false,
      "inputs": [
        {
          "indexed": false,
          "internalType": "uint256",
          "name": "",
          "type": "uint256"
        }
      ],
      "name": "RequestedRaffleWinner",
      "type": "event"
    },
    {
      "anonymous": false,
      "inputs": [
        {
          "indexed": true,
          "internalType": "address",
          "name": "winner",
          "type": "address"
        }
      ],
      "name": "WinnerPicked",
      "type": "event"
    },
    {
      "inputs": [
        {
          "internalType": "bytes",
          "name": "",
          "type": "bytes"
        }
      ],
      "name": "checkUpkeep",
      "outputs": [
        {
          "internalType": "bool",
          "name": "upkeepNeeded",
          "type": "bool"
        },
        {
          "internalType": "bytes",
          "name": "",
          "type": "bytes"
        }
      ],
      "stateMutability": "view",
      "type": "function"
    },
    {
      "inputs": [],
      "name": "enterRaffle",
      "outputs": [],
      "stateMutability": "payable",
      "type": "function"
    },
    {
      "inputs": [],
      "name": "getEntranceFee",
      "outputs": [
        {
          "internalType": "uint256",
          "name": "",
          "type": "uint256"
        }
      ],
      "stateMutability": "view",
      "type": "function"
    },
    {
      "inputs": [],
      "name": "getLastTimeStamp",
      "outputs": [
        {
          "internalType": "uint256",
          "name": "",
          "type": "uint256"
        }
      ],
      "stateMutability": "view",
      "type": "function"
    },
    {
      "inputs": [],
      "name": "getNumWords",
      "outputs": [
        {
          "internalType": "uint256",
          "name": "",
          "type": "uint256"
        }
      ],
      "stateMutability": "pure",
      "type": "function"
    },
    {
      "inputs": [
        {
          "internalType": "uint256",
          "name": "index",
          "type": "uint256"
        }
      ],
      "name": "getPlayer",
      "outputs": [
        {
          "internalType": "address",
          "name": "",
          "type": "address"
        }
      ],
      "stateMutability": "view",
      "type": "function"
    },
    {
      "inputs": [],
      "name": "getRaffleState",
      "outputs": [
        {
          "internalType": "enum Raffle.RaffleState",
          "name": "",
          "type": "uint8"
        }
      ],
      "stateMutability": "view",
      "type": "function"
    },
    {
      "inputs": [],
      "name": "getRecentWinner",
      "outputs": [
        {
          "internalType": "address",
          "name": "",
          "type": "address"
        }
      ],
      "stateMutability": "view",
      "type": "function"
    },
    {
      "inputs": [],
      "name": "getRequestConfirmation",
      "outputs": [
        {
          "internalType": "uint256",
          "name": "",
          "type": "uint256"
        }
      ],
      "stateMutability": "pure",
      "type": "function"
    },
    {
      "inputs": [
        {
          "internalType": "bytes",
          "name": "",
          "type": "bytes"
        }
      ],
      "name": "performUpkeep",
      "outputs": [],
      "stateMutability": "nonpayable",
      "type": "function"
    },
    {
      "inputs": [
        {
          "internalType": "uint256",
          "name": "requestId",
          "type": "uint256"
        },
        {
          "internalType": "uint256[]",
          "name": "randomWords",
          "type": "uint256[]"
        }
      ],
      "name": "rawFulfillRandomWords",
      "outputs": [],
      "stateMutability": "nonpayable",
      "type": "function"
    }
  ],
  "bytecode": "0x6101606040523480156200001257600080fd5b506040516200178c3803806200178c8339818101604052810190620000389190620001ad565b858073ffffffffffffffffffffffffffffffffffffffff1660808173ffffffffffffffffffffffffffffffffffffffff1660601b81525050508460a081815250508573ffffffffffffffffffffffffffffffffffffffff1660c08173ffffffffffffffffffffffffffffffffffffffff1660601b815250508360e081815250508267ffffffffffffffff166101008167ffffffffffffffff1660c01b815250508163ffffffff166101208163ffffffff1660e01b815250506000600160156101000a81548160ff02191690836001811115620001195762000118620002b5565b5b0217905550426002819055508061014081815250505050505050506200036b565b6000815190506200014b81620002e9565b92915050565b600081519050620001628162000303565b92915050565b60008151905062000179816200031d565b92915050565b600081519050620001908162000337565b92915050565b600081519050620001a78162000351565b92915050565b60008060008060008060c08789031215620001cd57620001cc620002e4565b5b6000620001dd89828a016200013a565b9650506020620001f089828a0162000168565b95505060406200020389828a0162000151565b94505060606200021689828a0162000196565b93505060806200022989828a016200017f565b92505060a06200023c89828a0162000168565b9150509295509295509295565b6000620002568262000267565b9050919050565b6000819050919050565b600073ffffffffffffffffffffffffffffffffffffffff82169050919050565b6000819050919050565b600063ffffffff82169050919050565b600067ffffffffffffffff82169050919050565b7f4e487b7100000000000000000000000000000000000000000000000000000000600052602160045260246000fd5b600080fd5b620002f48162000249565b81146200030057600080fd5b50565b6200030e816200025d565b81146200031a57600080fd5b50565b620003288162000287565b81146200033457600080fd5b50565b620003428162000291565b81146200034e57600080fd5b50565b6200035c81620002a1565b81146200036857600080fd5b50565b60805160601c60a05160c05160601c60e0516101005160c01c6101205160e01c610140516113ac620003e0600039600061076d0152600061061f015260006105fc015260006105db0152600061059f01526000818161027e015261037b0152600081816102bb015261030f01526113ac6000f3fe60806040526004361061009c5760003560e01c8063473f1ddc11610064578063473f1ddc1461015357806353a2c19a1461017e5780636e04ff0d146101a9578063c1c244e8146101e7578063ca6a9ef814610212578063e55ae4e81461023d5761009c565b806309bc33a7146100a1578063115cbaf5146100cc5780631fe543e3146100f75780632cfcc539146101205780634585e33b1461012a575b600080fd5b3480156100ad57600080fd5b506100b661027a565b6040516100c39190610fb2565b60405180910390f35b3480156100d857600080fd5b506100e16102a2565b6040516100ee9190610f97565b60405180910390f35b34801561010357600080fd5b5061011e60048036038101906101199190610d8b565b6102b9565b005b610128610379565b005b34801561013657600080fd5b50610151600480360381019061014c9190610c9b565b6104e8565b005b34801561015f57600080fd5b506101686106f1565b6040516101759190610ed0565b60405180910390f35b34801561018a57600080fd5b5061019361071b565b6040516101a09190610fb2565b60405180910390f35b3480156101b557600080fd5b506101d060048036038101906101cb9190610ce8565b61072a565b6040516101de929190610f14565b60405180910390f35b3480156101f357600080fd5b506101fc6107d7565b6040516102099190610fb2565b60405180910390f35b34801561021e57600080fd5b506102276107e1565b6040516102349190610fb2565b60405180910390f35b34801561024957600080fd5b50610264600480360381019061025f9190610d31565b6107ee565b6040516102719190610ed0565b60405180910390f35b60007f0000000000000000000000000000000000000000000000000000000000000000905090565b6000600160159054906101000a900460ff16905090565b7f000000000000000000000000000000000000000000000000000000000000000073ffffffffffffffffffffffffffffffffffffffff163373ffffffffffffffffffffffffffffffffffffffff161461036b57337f00000000000000000000000000000000000000000000000000000000000000006040517f1cf993f4000000000000000000000000000000000000000000000000000000008152600401610362929190610eeb565b60405180910390fd5b6103758282610835565b5050565b7f00000000000000000000000000000000000000000000000000000000000000003410156103d3576040517fbd4e069500000000000000000000000000000000000000000000000000000000815260040160405180910390fd5b600060018111156103e7576103e661128c565b5b600160159054906101000a900460ff1660018111156104095761040861128c565b5b14610440576040517f1425571c00000000000000000000000000000000000000000000000000000000815260040160405180910390fd5b6000339080600181540180825580915050600190039060005260206000200160009091909190916101000a81548173ffffffffffffffffffffffffffffffffffffffff021916908373ffffffffffffffffffffffffffffffffffffffff1602179055503373ffffffffffffffffffffffffffffffffffffffff167f0805e1d667bddb8a95f0f09880cf94f403fb596ce79928d9f29b74203ba284d460405160405180910390a2565b60006105026040518060200160405280600081525061072a565b509050806105715747600080549050600160159054906101000a900460ff1660018111156105335761053261128c565b5b6040517f584327aa00000000000000000000000000000000000000000000000000000000815260040161056893929190610fcd565b60405180910390fd5b60018060156101000a81548160ff021916908360018111156105965761059561128c565b5b021790555060007f000000000000000000000000000000000000000000000000000000000000000073ffffffffffffffffffffffffffffffffffffffff16635d3b1d307f00000000000000000000000000000000000000000000000000000000000000007f000000000000000000000000000000000000000000000000000000000000000060037f000000000000000000000000000000000000000000000000000000000000000060016040518663ffffffff1660e01b8152600401610660959493929190610f44565b602060405180830381600087803b15801561067a57600080fd5b505af115801561068e573d6000803e3d6000fd5b505050506040513d601f19601f820116820180604052508101906106b29190610d5e565b90507fcd6e45c8998311cab7e9d4385596cac867e20a0587194b954fa3a731c93ce78b816040516106e39190610fb2565b60405180910390a150505050565b6000600160009054906101000a900473ffffffffffffffffffffffffffffffffffffffff16905090565b6000600163ffffffff16905090565b600060606000600160159054906101000a900460ff1660018111156107525761075161128c565b5b600060018111156107665761076561128c565b5b14905060007f00000000000000000000000000000000000000000000000000000000000000006002544261079a91906110ad565b119050600080600080549050119050600080471190508380156107ba5750825b80156107c35750815b80156107cc5750805b955050505050915091565b6000600254905090565b6000600361ffff16905090565b6000808281548110610803576108026112bb565b5b9060005260206000200160009054906101000a900473ffffffffffffffffffffffffffffffffffffffff169050919050565b60008080549050826000815181106108505761084f6112bb565b5b602002602001015161086291906111fd565b90506000808281548110610879576108786112bb565b5b9060005260206000200160009054906101000a900473ffffffffffffffffffffffffffffffffffffffff16905080600160006101000a81548173ffffffffffffffffffffffffffffffffffffffff021916908373ffffffffffffffffffffffffffffffffffffffff160217905550600067ffffffffffffffff811115610902576109016112ea565b5b6040519080825280602002602001820160405280156109305781602001602082028036833780820191505090505b5060009080519060200190610946929190610a66565b506000600160156101000a81548160ff0219169083600181111561096d5761096c61128c565b5b02179055504260028190555060008173ffffffffffffffffffffffffffffffffffffffff164760405161099f90610ebb565b60006040518083038185875af1925050503d80600081146109dc576040519150601f19603f3d011682016040523d82523d6000602084013e6109e1565b606091505b5050905080610a1c576040517fba31c4f300000000000000000000000000000000000000000000000000000000815260040160405180910390fd5b8173ffffffffffffffffffffffffffffffffffffffff167f5b690ec4a06fe979403046eaeea5b3ce38524683c3001f662c8b5a829632f7df60405160405180910390a25050505050565b828054828255906000526020600020908101928215610adf579160200282015b82811115610ade5782518260006101000a81548173ffffffffffffffffffffffffffffffffffffffff021916908373ffffffffffffffffffffffffffffffffffffffff16021790555091602001919060010190610a86565b5b509050610aec9190610af0565b5090565b5b80821115610b09576000816000905550600101610af1565b5090565b6000610b20610b1b84611029565b611004565b90508083825260208201905082856020860282011115610b4357610b42611323565b5b60005b85811015610b735781610b598882610c71565b845260208401935060208301925050600181019050610b46565b5050509392505050565b6000610b90610b8b84611055565b611004565b905082815260208101848484011115610bac57610bab611328565b5b610bb784828561118a565b509392505050565b600082601f830112610bd457610bd361131e565b5b8135610be4848260208601610b0d565b91505092915050565b60008083601f840112610c0357610c0261131e565b5b8235905067ffffffffffffffff811115610c2057610c1f611319565b5b602083019150836001820283011115610c3c57610c3b611323565b5b9250929050565b600082601f830112610c5857610c5761131e565b5b8135610c68848260208601610b7d565b91505092915050565b600081359050610c808161135f565b92915050565b600081519050610c958161135f565b92915050565b60008060208385031215610cb257610cb1611332565b5b600083013567ffffffffffffffff811115610cd057610ccf61132d565b5b610cdc85828601610bed565b92509250509250929050565b600060208284031215610cfe57610cfd611332565b5b600082013567ffffffffffffffff811115610d1c57610d1b61132d565b5b610d2884828501610c43565b91505092915050565b600060208284031215610d4757610d46611332565b5b6000610d5584828501610c71565b91505092915050565b600060208284031215610d7457610d73611332565b5b6000610d8284828501610c86565b91505092915050565b60008060408385031215610da257610da1611332565b5b6000610db085828601610c71565b925050602083013567ffffffffffffffff811115610dd157610dd061132d565b5b610ddd85828601610bbf565b9150509250929050565b610df0816110e1565b82525050565b610dff816110f3565b82525050565b610e0e816110ff565b82525050565b6000610e1f82611086565b610e298185611091565b9350610e39818560208601611199565b610e4281611337565b840191505092915050565b610e5681611178565b82525050565b6000610e696000836110a2565b9150610e7482611348565b600082019050919050565b610e888161111c565b82525050565b610e978161114a565b82525050565b610ea681611154565b82525050565b610eb581611164565b82525050565b6000610ec682610e5c565b9150819050919050565b6000602082019050610ee56000830184610de7565b92915050565b6000604082019050610f006000830185610de7565b610f0d6020830184610de7565b9392505050565b6000604082019050610f296000830185610df6565b8181036020830152610f3b8184610e14565b90509392505050565b600060a082019050610f596000830188610e05565b610f666020830187610eac565b610f736040830186610e7f565b610f806060830185610e9d565b610f8d6080830184610e9d565b9695505050505050565b6000602082019050610fac6000830184610e4d565b92915050565b6000602082019050610fc76000830184610e8e565b92915050565b6000606082019050610fe26000830186610e8e565b610fef6020830185610e8e565b610ffc6040830184610e8e565b949350505050565b600061100e61101f565b905061101a82826111cc565b919050565b6000604051905090565b600067ffffffffffffffff821115611044576110436112ea565b5b602082029050602081019050919050565b600067ffffffffffffffff8211156110705761106f6112ea565b5b61107982611337565b9050602081019050919050565b600081519050919050565b600082825260208201905092915050565b600081905092915050565b60006110b88261114a565b91506110c38361114a565b9250828210156110d6576110d561122e565b5b828203905092915050565b60006110ec8261112a565b9050919050565b60008115159050919050565b6000819050919050565b60008190506111178261134b565b919050565b600061ffff82169050919050565b600073ffffffffffffffffffffffffffffffffffffffff82169050919050565b6000819050919050565b600063ffffffff82169050919050565b600067ffffffffffffffff82169050919050565b600061118382611109565b9050919050565b82818337600083830152505050565b60005b838110156111b757808201518184015260208101905061119c565b838111156111c6576000848401525b50505050565b6111d582611337565b810181811067ffffffffffffffff821117156111f4576111f36112ea565b5b80604052505050565b60006112088261114a565b91506112138361114a565b9250826112235761122261125d565b5b828206905092915050565b7f4e487b7100000000000000000000000000000000000000000000000000000000600052601160045260246000fd5b7f4e487b7100000000000000000000000000000000000000000000000000000000600052601260045260246000fd5b7f4e487b7100000000000000000000000000000000000000000000000000000000600052602160045260246000fd5b7f4e487b7100000000000000000000000000000000000000000000000000000000600052603260045260246000fd5b7f4e487b7100000000000000000000000000000000000000000000000000000000600052604160045260246000fd5b600080fd5b600080fd5b600080fd5b600080fd5b600080fd5b600080fd5b6000601f19601f8301169050919050565b50565b6002811061135c5761135b61128c565b5b50565b6113688161114a565b811461137357600080fd5b5056fea2646970667358221220789b1f0b93cd29961fef3374e0fa2bf21908e2938c333c18c19725160c31c58164736f6c63430008070033",
  "linkReferences": {},
  "deployedLinkReferences": {}
}