{
  "_format": "hh-sol-artifact-1",
  "contractName": "Raffle",
  "sourceName": "contracts/Raffle.sol",
  "abi": [
    {
      "inputs": [
        {
          "internalType": "address",
          "name": "vrfCoordinatorV2",
          "type": "address"
        },
        {
          "internalType": "uint256",
          "name": "entranceFee",
          "type": "uint256"
        },
        {
          "internalType": "bytes32",
          "name": "gasLane",
          "type": "bytes32"
        },
        {
          "internalType": "uint64",
          "name": "subscriptionID",
          "type": "uint64"
        },
        {
          "internalType": "uint32",
          "name": "callbackGasLimit",
          "type": "uint32"
        },
        {
          "internalType": "uint256",
          "name": "interval",
          "type": "uint256"
        }
      ],
      "stateMutability": "nonpayable",
      "type": "constructor"
    },
    {
      "inputs": [
        {
          "internalType": "address",
          "name": "have",
          "type": "address"
        },
        {
          "internalType": "address",
          "name": "want",
          "type": "address"
        }
      ],
      "name": "OnlyCoordinatorCanFulfill",
      "type": "error"
    },
    {
      "inputs": [],
      "name": "Raffle_TransferFailed",
      "type": "error"
    },
    {
      "inputs": [],
      "name": "Raffle__NotEnoughETHEntered",
      "type": "error"
    },
    {
      "inputs": [],
      "name": "Raffle__NotOpen",
      "type": "error"
    },
    {
      "inputs": [
        {
          "internalType": "uint256",
          "name": "currentBalance",
          "type": "uint256"
        },
        {
          "internalType": "uint256",
          "name": "numPlayers",
          "type": "uint256"
        },
        {
          "internalType": "uint256",
          "name": "raffleState",
          "type": "uint256"
        }
      ],
      "name": "Raffle__UpkeepNotNeeded",
      "type": "error"
    },
    {
      "anonymous": false,
      "inputs": [
        {
          "indexed": true,
          "internalType": "address",
          "name": "player",
          "type": "address"
        }
      ],
      "name": "RaffleEnter",
      "type": "event"
    },
    {
      "anonymous": false,
      "inputs": [
        {
          "indexed": false,
          "internalType": "uint256",
          "name": "",
          "type": "uint256"
        }
      ],
      "name": "RequestedRaffleWinner",
      "type": "event"
    },
    {
      "anonymous": false,
      "inputs": [
        {
          "indexed": true,
          "internalType": "address",
          "name": "winner",
          "type": "address"
        }
      ],
      "name": "WinnerPicked",
      "type": "event"
    },
    {
      "inputs": [
        {
          "internalType": "bytes",
          "name": "",
          "type": "bytes"
        }
      ],
      "name": "checkUpkeep",
      "outputs": [
        {
          "internalType": "bool",
          "name": "upkeepNeeded",
          "type": "bool"
        },
        {
          "internalType": "bytes",
          "name": "",
          "type": "bytes"
        }
      ],
      "stateMutability": "view",
      "type": "function"
    },
    {
      "inputs": [],
      "name": "enterRaffle",
      "outputs": [],
      "stateMutability": "payable",
      "type": "function"
    },
    {
      "inputs": [],
      "name": "getEntranceFee",
      "outputs": [
        {
          "internalType": "uint256",
          "name": "",
          "type": "uint256"
        }
      ],
      "stateMutability": "view",
      "type": "function"
    },
    {
      "inputs": [],
      "name": "getInterval",
      "outputs": [
        {
          "internalType": "uint256",
          "name": "",
          "type": "uint256"
        }
      ],
      "stateMutability": "view",
      "type": "function"
    },
    {
      "inputs": [],
      "name": "getLastTimeStamp",
      "outputs": [
        {
          "internalType": "uint256",
          "name": "",
          "type": "uint256"
        }
      ],
      "stateMutability": "view",
      "type": "function"
    },
    {
      "inputs": [],
      "name": "getNumWords",
      "outputs": [
        {
          "internalType": "uint256",
          "name": "",
          "type": "uint256"
        }
      ],
      "stateMutability": "pure",
      "type": "function"
    },
    {
      "inputs": [
        {
          "internalType": "uint256",
          "name": "index",
          "type": "uint256"
        }
      ],
      "name": "getPlayer",
      "outputs": [
        {
          "internalType": "address",
          "name": "",
          "type": "address"
        }
      ],
      "stateMutability": "view",
      "type": "function"
    },
    {
      "inputs": [],
      "name": "getRaffleState",
      "outputs": [
        {
          "internalType": "enum Raffle.RaffleState",
          "name": "",
          "type": "uint8"
        }
      ],
      "stateMutability": "view",
      "type": "function"
    },
    {
      "inputs": [],
      "name": "getRecentWinner",
      "outputs": [
        {
          "internalType": "address",
          "name": "",
          "type": "address"
        }
      ],
      "stateMutability": "view",
      "type": "function"
    },
    {
      "inputs": [],
      "name": "getRequestConfirmation",
      "outputs": [
        {
          "internalType": "uint256",
          "name": "",
          "type": "uint256"
        }
      ],
      "stateMutability": "pure",
      "type": "function"
    },
    {
      "inputs": [
        {
          "internalType": "bytes",
          "name": "",
          "type": "bytes"
        }
      ],
      "name": "performUpkeep",
      "outputs": [],
      "stateMutability": "nonpayable",
      "type": "function"
    },
    {
      "inputs": [
        {
          "internalType": "uint256",
          "name": "requestId",
          "type": "uint256"
        },
        {
          "internalType": "uint256[]",
          "name": "randomWords",
          "type": "uint256[]"
        }
      ],
      "name": "rawFulfillRandomWords",
      "outputs": [],
      "stateMutability": "nonpayable",
      "type": "function"
    }
  ],
  "bytecode": "0x6101606040523480156200001257600080fd5b50604051620017f1380380620017f18339818101604052810190620000389190620001ad565b858073ffffffffffffffffffffffffffffffffffffffff1660808173ffffffffffffffffffffffffffffffffffffffff1660601b81525050508460a081815250508573ffffffffffffffffffffffffffffffffffffffff1660c08173ffffffffffffffffffffffffffffffffffffffff1660601b815250508360e081815250508267ffffffffffffffff166101008167ffffffffffffffff1660c01b815250508163ffffffff166101208163ffffffff1660e01b815250506000600160156101000a81548160ff02191690836001811115620001195762000118620002b5565b5b0217905550426002819055508061014081815250505050505050506200036b565b6000815190506200014b81620002e9565b92915050565b600081519050620001628162000303565b92915050565b60008151905062000179816200031d565b92915050565b600081519050620001908162000337565b92915050565b600081519050620001a78162000351565b92915050565b60008060008060008060c08789031215620001cd57620001cc620002e4565b5b6000620001dd89828a016200013a565b9650506020620001f089828a0162000168565b95505060406200020389828a0162000151565b94505060606200021689828a0162000196565b93505060806200022989828a016200017f565b92505060a06200023c89828a0162000168565b9150509295509295509295565b6000620002568262000267565b9050919050565b6000819050919050565b600073ffffffffffffffffffffffffffffffffffffffff82169050919050565b6000819050919050565b600063ffffffff82169050919050565b600067ffffffffffffffff82169050919050565b7f4e487b7100000000000000000000000000000000000000000000000000000000600052602160045260246000fd5b600080fd5b620002f48162000249565b81146200030057600080fd5b50565b6200030e816200025d565b81146200031a57600080fd5b50565b620003288162000287565b81146200033457600080fd5b50565b620003428162000291565b81146200034e57600080fd5b50565b6200035c81620002a1565b81146200036857600080fd5b50565b60805160601c60a05160c05160601c60e0516101005160c01c6101205160e01c6101405161140a620003e7600039600081816107a30152610811015260006106550152600061063201526000610611015260006105d50152600081816102b401526103b10152600081816102f10152610345015261140a6000f3fe6080604052600436106100a75760003560e01c806353a2c19a1161006457806353a2c19a146101895780636e04ff0d146101b457806391ad27b4146101f2578063c1c244e81461021d578063ca6a9ef814610248578063e55ae4e814610273576100a7565b806309bc33a7146100ac578063115cbaf5146100d75780631fe543e3146101025780632cfcc5391461012b5780634585e33b14610135578063473f1ddc1461015e575b600080fd5b3480156100b857600080fd5b506100c16102b0565b6040516100ce9190611010565b60405180910390f35b3480156100e357600080fd5b506100ec6102d8565b6040516100f99190610ff5565b60405180910390f35b34801561010e57600080fd5b5061012960048036038101906101249190610de9565b6102ef565b005b6101336103af565b005b34801561014157600080fd5b5061015c60048036038101906101579190610cf9565b61051e565b005b34801561016a57600080fd5b50610173610727565b6040516101809190610f2e565b60405180910390f35b34801561019557600080fd5b5061019e610751565b6040516101ab9190611010565b60405180910390f35b3480156101c057600080fd5b506101db60048036038101906101d69190610d46565b610760565b6040516101e9929190610f72565b60405180910390f35b3480156101fe57600080fd5b5061020761080d565b6040516102149190611010565b60405180910390f35b34801561022957600080fd5b50610232610835565b60405161023f9190611010565b60405180910390f35b34801561025457600080fd5b5061025d61083f565b60405161026a9190611010565b60405180910390f35b34801561027f57600080fd5b5061029a60048036038101906102959190610d8f565b61084c565b6040516102a79190610f2e565b60405180910390f35b60007f0000000000000000000000000000000000000000000000000000000000000000905090565b6000600160159054906101000a900460ff16905090565b7f000000000000000000000000000000000000000000000000000000000000000073ffffffffffffffffffffffffffffffffffffffff163373ffffffffffffffffffffffffffffffffffffffff16146103a157337f00000000000000000000000000000000000000000000000000000000000000006040517f1cf993f4000000000000000000000000000000000000000000000000000000008152600401610398929190610f49565b60405180910390fd5b6103ab8282610893565b5050565b7f0000000000000000000000000000000000000000000000000000000000000000341015610409576040517fbd4e069500000000000000000000000000000000000000000000000000000000815260040160405180910390fd5b6000600181111561041d5761041c6112ea565b5b600160159054906101000a900460ff16600181111561043f5761043e6112ea565b5b14610476576040517f1425571c00000000000000000000000000000000000000000000000000000000815260040160405180910390fd5b6000339080600181540180825580915050600190039060005260206000200160009091909190916101000a81548173ffffffffffffffffffffffffffffffffffffffff021916908373ffffffffffffffffffffffffffffffffffffffff1602179055503373ffffffffffffffffffffffffffffffffffffffff167f0805e1d667bddb8a95f0f09880cf94f403fb596ce79928d9f29b74203ba284d460405160405180910390a2565b600061053860405180602001604052806000815250610760565b509050806105a75747600080549050600160159054906101000a900460ff166001811115610569576105686112ea565b5b6040517f584327aa00000000000000000000000000000000000000000000000000000000815260040161059e9392919061102b565b60405180910390fd5b60018060156101000a81548160ff021916908360018111156105cc576105cb6112ea565b5b021790555060007f000000000000000000000000000000000000000000000000000000000000000073ffffffffffffffffffffffffffffffffffffffff16635d3b1d307f00000000000000000000000000000000000000000000000000000000000000007f000000000000000000000000000000000000000000000000000000000000000060037f000000000000000000000000000000000000000000000000000000000000000060016040518663ffffffff1660e01b8152600401610696959493929190610fa2565b602060405180830381600087803b1580156106b057600080fd5b505af11580156106c4573d6000803e3d6000fd5b505050506040513d601f19601f820116820180604052508101906106e89190610dbc565b90507fcd6e45c8998311cab7e9d4385596cac867e20a0587194b954fa3a731c93ce78b816040516107199190611010565b60405180910390a150505050565b6000600160009054906101000a900473ffffffffffffffffffffffffffffffffffffffff16905090565b6000600163ffffffff16905090565b600060606000600160159054906101000a900460ff166001811115610788576107876112ea565b5b6000600181111561079c5761079b6112ea565b5b14905060007f0000000000000000000000000000000000000000000000000000000000000000600254426107d0919061110b565b119050600080600080549050119050600080471190508380156107f05750825b80156107f95750815b80156108025750805b955050505050915091565b60007f0000000000000000000000000000000000000000000000000000000000000000905090565b6000600254905090565b6000600361ffff16905090565b600080828154811061086157610860611319565b5b9060005260206000200160009054906101000a900473ffffffffffffffffffffffffffffffffffffffff169050919050565b60008080549050826000815181106108ae576108ad611319565b5b60200260200101516108c0919061125b565b905060008082815481106108d7576108d6611319565b5b9060005260206000200160009054906101000a900473ffffffffffffffffffffffffffffffffffffffff16905080600160006101000a81548173ffffffffffffffffffffffffffffffffffffffff021916908373ffffffffffffffffffffffffffffffffffffffff160217905550600067ffffffffffffffff8111156109605761095f611348565b5b60405190808252806020026020018201604052801561098e5781602001602082028036833780820191505090505b50600090805190602001906109a4929190610ac4565b506000600160156101000a81548160ff021916908360018111156109cb576109ca6112ea565b5b02179055504260028190555060008173ffffffffffffffffffffffffffffffffffffffff16476040516109fd90610f19565b60006040518083038185875af1925050503d8060008114610a3a576040519150601f19603f3d011682016040523d82523d6000602084013e610a3f565b606091505b5050905080610a7a576040517fba31c4f300000000000000000000000000000000000000000000000000000000815260040160405180910390fd5b8173ffffffffffffffffffffffffffffffffffffffff167f5b690ec4a06fe979403046eaeea5b3ce38524683c3001f662c8b5a829632f7df60405160405180910390a25050505050565b828054828255906000526020600020908101928215610b3d579160200282015b82811115610b3c5782518260006101000a81548173ffffffffffffffffffffffffffffffffffffffff021916908373ffffffffffffffffffffffffffffffffffffffff16021790555091602001919060010190610ae4565b5b509050610b4a9190610b4e565b5090565b5b80821115610b67576000816000905550600101610b4f565b5090565b6000610b7e610b7984611087565b611062565b90508083825260208201905082856020860282011115610ba157610ba0611381565b5b60005b85811015610bd15781610bb78882610ccf565b845260208401935060208301925050600181019050610ba4565b5050509392505050565b6000610bee610be9846110b3565b611062565b905082815260208101848484011115610c0a57610c09611386565b5b610c158482856111e8565b509392505050565b600082601f830112610c3257610c3161137c565b5b8135610c42848260208601610b6b565b91505092915050565b60008083601f840112610c6157610c6061137c565b5b8235905067ffffffffffffffff811115610c7e57610c7d611377565b5b602083019150836001820283011115610c9a57610c99611381565b5b9250929050565b600082601f830112610cb657610cb561137c565b5b8135610cc6848260208601610bdb565b91505092915050565b600081359050610cde816113bd565b92915050565b600081519050610cf3816113bd565b92915050565b60008060208385031215610d1057610d0f611390565b5b600083013567ffffffffffffffff811115610d2e57610d2d61138b565b5b610d3a85828601610c4b565b92509250509250929050565b600060208284031215610d5c57610d5b611390565b5b600082013567ffffffffffffffff811115610d7a57610d7961138b565b5b610d8684828501610ca1565b91505092915050565b600060208284031215610da557610da4611390565b5b6000610db384828501610ccf565b91505092915050565b600060208284031215610dd257610dd1611390565b5b6000610de084828501610ce4565b91505092915050565b60008060408385031215610e0057610dff611390565b5b6000610e0e85828601610ccf565b925050602083013567ffffffffffffffff811115610e2f57610e2e61138b565b5b610e3b85828601610c1d565b9150509250929050565b610e4e8161113f565b82525050565b610e5d81611151565b82525050565b610e6c8161115d565b82525050565b6000610e7d826110e4565b610e8781856110ef565b9350610e978185602086016111f7565b610ea081611395565b840191505092915050565b610eb4816111d6565b82525050565b6000610ec7600083611100565b9150610ed2826113a6565b600082019050919050565b610ee68161117a565b82525050565b610ef5816111a8565b82525050565b610f04816111b2565b82525050565b610f13816111c2565b82525050565b6000610f2482610eba565b9150819050919050565b6000602082019050610f436000830184610e45565b92915050565b6000604082019050610f5e6000830185610e45565b610f6b6020830184610e45565b9392505050565b6000604082019050610f876000830185610e54565b8181036020830152610f998184610e72565b90509392505050565b600060a082019050610fb76000830188610e63565b610fc46020830187610f0a565b610fd16040830186610edd565b610fde6060830185610efb565b610feb6080830184610efb565b9695505050505050565b600060208201905061100a6000830184610eab565b92915050565b60006020820190506110256000830184610eec565b92915050565b60006060820190506110406000830186610eec565b61104d6020830185610eec565b61105a6040830184610eec565b949350505050565b600061106c61107d565b9050611078828261122a565b919050565b6000604051905090565b600067ffffffffffffffff8211156110a2576110a1611348565b5b602082029050602081019050919050565b600067ffffffffffffffff8211156110ce576110cd611348565b5b6110d782611395565b9050602081019050919050565b600081519050919050565b600082825260208201905092915050565b600081905092915050565b6000611116826111a8565b9150611121836111a8565b9250828210156111345761113361128c565b5b828203905092915050565b600061114a82611188565b9050919050565b60008115159050919050565b6000819050919050565b6000819050611175826113a9565b919050565b600061ffff82169050919050565b600073ffffffffffffffffffffffffffffffffffffffff82169050919050565b6000819050919050565b600063ffffffff82169050919050565b600067ffffffffffffffff82169050919050565b60006111e182611167565b9050919050565b82818337600083830152505050565b60005b838110156112155780820151818401526020810190506111fa565b83811115611224576000848401525b50505050565b61123382611395565b810181811067ffffffffffffffff8211171561125257611251611348565b5b80604052505050565b6000611266826111a8565b9150611271836111a8565b925082611281576112806112bb565b5b828206905092915050565b7f4e487b7100000000000000000000000000000000000000000000000000000000600052601160045260246000fd5b7f4e487b7100000000000000000000000000000000000000000000000000000000600052601260045260246000fd5b7f4e487b7100000000000000000000000000000000000000000000000000000000600052602160045260246000fd5b7f4e487b7100000000000000000000000000000000000000000000000000000000600052603260045260246000fd5b7f4e487b7100000000000000000000000000000000000000000000000000000000600052604160045260246000fd5b600080fd5b600080fd5b600080fd5b600080fd5b600080fd5b600080fd5b6000601f19601f8301169050919050565b50565b600281106113ba576113b96112ea565b5b50565b6113c6816111a8565b81146113d157600080fd5b5056fea2646970667358221220a6386a63fd842876de0b23fcb2588015a75406a088aa81630c817c02ea40adae64736f6c63430008070033",
  "linkReferences": {},
  "deployedLinkReferences": {}
}