{
  "_format": "hh-sol-artifact-1",
  "contractName": "Raffle",
  "sourceName": "contracts/Raffle.sol",
  "abi": [
    {
      "inputs": [
        {
          "internalType": "address",
          "name": "vrfCoordinatorV2",
          "type": "address"
        },
        {
          "internalType": "uint256",
          "name": "entranceFee",
          "type": "uint256"
        },
        {
          "internalType": "bytes32",
          "name": "gasLane",
          "type": "bytes32"
        },
        {
          "internalType": "uint64",
          "name": "subscriptionID",
          "type": "uint64"
        },
        {
          "internalType": "uint32",
          "name": "callbackGasLimit",
          "type": "uint32"
        },
        {
          "internalType": "uint256",
          "name": "interval",
          "type": "uint256"
        }
      ],
      "stateMutability": "nonpayable",
      "type": "constructor"
    },
    {
      "inputs": [
        {
          "internalType": "address",
          "name": "have",
          "type": "address"
        },
        {
          "internalType": "address",
          "name": "want",
          "type": "address"
        }
      ],
      "name": "OnlyCoordinatorCanFulfill",
      "type": "error"
    },
    {
      "inputs": [],
      "name": "Raffle_TransferFailed",
      "type": "error"
    },
    {
      "inputs": [],
      "name": "Raffle__NotEnoughETHEntered",
      "type": "error"
    },
    {
      "inputs": [],
      "name": "Raffle__NotOpen",
      "type": "error"
    },
    {
      "inputs": [
        {
          "internalType": "uint256",
          "name": "currentBalance",
          "type": "uint256"
        },
        {
          "internalType": "uint256",
          "name": "numPlayers",
          "type": "uint256"
        },
        {
          "internalType": "uint256",
          "name": "raffleState",
          "type": "uint256"
        }
      ],
      "name": "Raffle__UpkeepNotNeeded",
      "type": "error"
    },
    {
      "anonymous": false,
      "inputs": [
        {
          "indexed": true,
          "internalType": "address",
          "name": "player",
          "type": "address"
        }
      ],
      "name": "RaffleEnter",
      "type": "event"
    },
    {
      "anonymous": false,
      "inputs": [
        {
          "indexed": false,
          "internalType": "uint256",
          "name": "",
          "type": "uint256"
        }
      ],
      "name": "RequestedRaffleWinner",
      "type": "event"
    },
    {
      "anonymous": false,
      "inputs": [
        {
          "indexed": true,
          "internalType": "address",
          "name": "winner",
          "type": "address"
        }
      ],
      "name": "WinnerPicked",
      "type": "event"
    },
    {
      "inputs": [
        {
          "internalType": "bytes",
          "name": "",
          "type": "bytes"
        }
      ],
      "name": "checkUpkeep",
      "outputs": [
        {
          "internalType": "bool",
          "name": "upkeepNeeded",
          "type": "bool"
        },
        {
          "internalType": "bytes",
          "name": "",
          "type": "bytes"
        }
      ],
      "stateMutability": "view",
      "type": "function"
    },
    {
      "inputs": [],
      "name": "enterRaffle",
      "outputs": [],
      "stateMutability": "payable",
      "type": "function"
    },
    {
      "inputs": [],
      "name": "getEntranceFee",
      "outputs": [
        {
          "internalType": "uint256",
          "name": "",
          "type": "uint256"
        }
      ],
      "stateMutability": "view",
      "type": "function"
    },
    {
      "inputs": [],
      "name": "getInterval",
      "outputs": [
        {
          "internalType": "uint256",
          "name": "",
          "type": "uint256"
        }
      ],
      "stateMutability": "view",
      "type": "function"
    },
    {
      "inputs": [],
      "name": "getLastTimeStamp",
      "outputs": [
        {
          "internalType": "uint256",
          "name": "",
          "type": "uint256"
        }
      ],
      "stateMutability": "view",
      "type": "function"
    },
    {
      "inputs": [],
      "name": "getNumWords",
      "outputs": [
        {
          "internalType": "uint256",
          "name": "",
          "type": "uint256"
        }
      ],
      "stateMutability": "pure",
      "type": "function"
    },
    {
      "inputs": [
        {
          "internalType": "uint256",
          "name": "index",
          "type": "uint256"
        }
      ],
      "name": "getPlayer",
      "outputs": [
        {
          "internalType": "address",
          "name": "",
          "type": "address"
        }
      ],
      "stateMutability": "view",
      "type": "function"
    },
    {
      "inputs": [],
      "name": "getRaffleState",
      "outputs": [
        {
          "internalType": "enum Raffle.RaffleState",
          "name": "",
          "type": "uint8"
        }
      ],
      "stateMutability": "view",
      "type": "function"
    },
    {
      "inputs": [],
      "name": "getRecentWinner",
      "outputs": [
        {
          "internalType": "address",
          "name": "",
          "type": "address"
        }
      ],
      "stateMutability": "view",
      "type": "function"
    },
    {
      "inputs": [],
      "name": "getRequestConfirmation",
      "outputs": [
        {
          "internalType": "uint256",
          "name": "",
          "type": "uint256"
        }
      ],
      "stateMutability": "pure",
      "type": "function"
    },
    {
      "inputs": [
        {
          "internalType": "bytes",
          "name": "",
          "type": "bytes"
        }
      ],
      "name": "performUpkeep",
      "outputs": [],
      "stateMutability": "nonpayable",
      "type": "function"
    },
    {
      "inputs": [
        {
          "internalType": "uint256",
          "name": "requestId",
          "type": "uint256"
        },
        {
          "internalType": "uint256[]",
          "name": "randomWords",
          "type": "uint256[]"
        }
      ],
      "name": "rawFulfillRandomWords",
      "outputs": [],
      "stateMutability": "nonpayable",
      "type": "function"
    }
  ],
  "bytecode": "0x6101606040523480156200001257600080fd5b5060405162001f2038038062001f208339818101604052810190620000389190620002ac565b858073ffffffffffffffffffffffffffffffffffffffff1660808173ffffffffffffffffffffffffffffffffffffffff1660601b81525050506200008d67cd211f0808f19f1560c01b6200023660201b60201c565b620000a9670e68015ad5778f3c60c01b6200023660201b60201c565b8460a08181525050620000cd67660d0f7e6dd87f6e60c01b6200023660201b60201c565b8573ffffffffffffffffffffffffffffffffffffffff1660c08173ffffffffffffffffffffffffffffffffffffffff1660601b81525050620001206778eccc53b1e9d0f960c01b6200023660201b60201c565b8360e081815250506200014467d61ec5adb35c5f2960c01b6200023660201b60201c565b8267ffffffffffffffff166101008167ffffffffffffffff1660c01b8152505062000180671e39aad44219530760c01b6200023660201b60201c565b8163ffffffff166101208163ffffffff1660e01b81525050620001b46781b42f2a3da9b03960c01b6200023660201b60201c565b6000600160156101000a81548160ff02191690836001811115620001dd57620001dc620003b4565b5b0217905550620001fe67bc3234cb4c0f3c9860c01b6200023660201b60201c565b4260028190555062000221673f7cc7d609b4a89060c01b6200023660201b60201c565b8061014081815250505050505050506200046a565b50565b6000815190506200024a81620003e8565b92915050565b600081519050620002618162000402565b92915050565b60008151905062000278816200041c565b92915050565b6000815190506200028f8162000436565b92915050565b600081519050620002a68162000450565b92915050565b60008060008060008060c08789031215620002cc57620002cb620003e3565b5b6000620002dc89828a0162000239565b9650506020620002ef89828a0162000267565b95505060406200030289828a0162000250565b94505060606200031589828a0162000295565b93505060806200032889828a016200027e565b92505060a06200033b89828a0162000267565b9150509295509295509295565b6000620003558262000366565b9050919050565b6000819050919050565b600073ffffffffffffffffffffffffffffffffffffffff82169050919050565b6000819050919050565b600063ffffffff82169050919050565b600067ffffffffffffffff82169050919050565b7f4e487b7100000000000000000000000000000000000000000000000000000000600052602160045260246000fd5b600080fd5b620003f38162000348565b8114620003ff57600080fd5b50565b6200040d816200035c565b81146200041957600080fd5b50565b620004278162000386565b81146200043357600080fd5b50565b620004418162000390565b81146200044d57600080fd5b50565b6200045b81620003a0565b81146200046757600080fd5b50565b60805160601c60a05160c05160601c60e0516101005160c01c6101205160e01c61014051611a3a620004e660003960008181610b130152610c21015260006108c10152600061089e0152600061087d015260006108410152600081816102f0015261046501526000818161036901526103bd0152611a3a6000f3fe6080604052600436106100a75760003560e01c806353a2c19a1161006457806353a2c19a146101895780636e04ff0d146101b457806391ad27b4146101f2578063c1c244e81461021d578063ca6a9ef814610248578063e55ae4e814610273576100a7565b806309bc33a7146100ac578063115cbaf5146100d75780631fe543e3146101025780632cfcc5391461012b5780634585e33b14610135578063473f1ddc1461015e575b600080fd5b3480156100b857600080fd5b506100c16102b0565b6040516100ce9190611640565b60405180910390f35b3480156100e357600080fd5b506100ec610314565b6040516100f99190611625565b60405180910390f35b34801561010e57600080fd5b5061012960048036038101906101249190611419565b610367565b005b610133610427565b005b34801561014157600080fd5b5061015c60048036038101906101579190611329565b6106ae565b005b34801561016a57600080fd5b506101736109bb565b604051610180919061155e565b60405180910390f35b34801561019557600080fd5b5061019e610a21565b6040516101ab9190611640565b60405180910390f35b3480156101c057600080fd5b506101db60048036038101906101d69190611376565b610a6c565b6040516101e99291906115a2565b60405180910390f35b3480156101fe57600080fd5b50610207610be1565b6040516102149190611640565b60405180910390f35b34801561022957600080fd5b50610232610c45565b60405161023f9190611640565b60405180910390f35b34801561025457600080fd5b5061025d610c8b565b60405161026a9190611640565b60405180910390f35b34801561027f57600080fd5b5061029a600480360381019061029591906113bf565b610cd4565b6040516102a7919061155e565b60405180910390f35b60006102c6674d0ff22d586ab23a60c01b610d58565b6102da679269a7fc4a918bb760c01b610d58565b6102ee67b4bc64cdfd32fd3560c01b610d58565b7f0000000000000000000000000000000000000000000000000000000000000000905090565b600061032a67c9fb9915d68ee49f60c01b610d58565b61033e6719092d4c2e02575060c01b610d58565b6103526774963979944b5dc860c01b610d58565b600160159054906101000a900460ff16905090565b7f000000000000000000000000000000000000000000000000000000000000000073ffffffffffffffffffffffffffffffffffffffff163373ffffffffffffffffffffffffffffffffffffffff161461041957337f00000000000000000000000000000000000000000000000000000000000000006040517f1cf993f4000000000000000000000000000000000000000000000000000000008152600401610410929190611579565b60405180910390fd5b6104238282610d5b565b5050565b61043b67b63894c7a4ad4af360c01b610d58565b61044f67a78f1e0d2edb260960c01b610d58565b61046367e9044171e7dfaba660c01b610d58565b7f00000000000000000000000000000000000000000000000000000000000000003410156104d15761049f672d0197351fb4b74c60c01b610d58565b6040517fbd4e069500000000000000000000000000000000000000000000000000000000815260040160405180910390fd5b6104e567a0815e248aee27ef60c01b610d58565b6104f9674f049c014b97c41e60c01b610d58565b61050d670d69ace02a610bef60c01b610d58565b600060018111156105215761052061191a565b5b600160159054906101000a900460ff1660018111156105435761054261191a565b5b146105a25761055c673967abe458e4024f60c01b610d58565b61057067f938dafd05476f4660c01b610d58565b6040517f1425571c00000000000000000000000000000000000000000000000000000000815260040160405180910390fd5b6105b6674df927445f67880660c01b610d58565b6105ca67a11b94051fc91fc060c01b610d58565b6105de67ef49443dabaca8cf60c01b610d58565b6000339080600181540180825580915050600190039060005260206000200160009091909190916101000a81548173ffffffffffffffffffffffffffffffffffffffff021916908373ffffffffffffffffffffffffffffffffffffffff160217905550610655673413146370db021c60c01b610d58565b610669673cc16ea76f4c2aec60c01b610d58565b3373ffffffffffffffffffffffffffffffffffffffff167f0805e1d667bddb8a95f0f09880cf94f403fb596ce79928d9f29b74203ba284d460405160405180910390a2565b6106c267627557582790752f60c01b610d58565b6106d667686448a6f9c11adf60c01b610d58565b6106ea675b2467126d6a576b60c01b610d58565b600061070460405180602001604052806000815250610a6c565b50905061071b67961680150a06e8e360c01b610d58565b61072f67b2a885060b057a6360c01b610d58565b806107c35761074867a4eec994e185643960c01b610d58565b61075c67b5855e0bdad14aed60c01b610d58565b47600080549050600160159054906101000a900460ff1660018111156107855761078461191a565b5b6040517f584327aa0000000000000000000000000000000000000000000000000000000081526004016107ba9392919061165b565b60405180910390fd5b6107d767549b4b1db9e5afab60c01b610d58565b6107eb675e33dd752ff695a860c01b610d58565b60018060156101000a81548160ff021916908360018111156108105761080f61191a565b5b0217905550610829676713d796a8f305f660c01b610d58565b61083d6776c80471241c307360c01b610d58565b60007f000000000000000000000000000000000000000000000000000000000000000073ffffffffffffffffffffffffffffffffffffffff16635d3b1d307f00000000000000000000000000000000000000000000000000000000000000007f000000000000000000000000000000000000000000000000000000000000000060037f000000000000000000000000000000000000000000000000000000000000000060016040518663ffffffff1660e01b81526004016109029594939291906115d2565b602060405180830381600087803b15801561091c57600080fd5b505af1158015610930573d6000803e3d6000fd5b505050506040513d601f19601f8201168201806040525081019061095491906113ec565b905061096a6726d50e2c092ef1c360c01b610d58565b61097e6786de8b3bf6ac417860c01b610d58565b7fcd6e45c8998311cab7e9d4385596cac867e20a0587194b954fa3a731c93ce78b816040516109ad9190611640565b60405180910390a150505050565b60006109d167d3ce65d412f505e160c01b610d58565b6109e5671d277deb83a8aed560c01b610d58565b6109f967a38b5f639687f98560c01b610d58565b600160009054906101000a900473ffffffffffffffffffffffffffffffffffffffff16905090565b6000610a37675fa8aabdaf23752760c01b610d58565b610a4b6753b7c1a1aed6f9bf60c01b610d58565b610a5f678356b7713aa8843160c01b610d58565b600163ffffffff16905090565b60006060610a84674c023c047d284cf760c01b610d58565b610a98670b06f50b9b6287ac60c01b610d58565b610aac678bfa36cf35226a3f60c01b610d58565b6000600160159054906101000a900460ff166001811115610ad057610acf61191a565b5b60006001811115610ae457610ae361191a565b5b149050610afb6754334ad09cd5fac360c01b610d58565b610b0f67c40281186305a42860c01b610d58565b60007f000000000000000000000000000000000000000000000000000000000000000060025442610b40919061173b565b119050610b5767b6f0d115ee24861160c01b610d58565b610b6b6708f1bd8890a3482160c01b610d58565b600080600080549050119050610b8b67b8a61a84fdc9322760c01b610d58565b610b9f675bd5c273d7e9300a60c01b610d58565b60008047119050610bba67fbff688cb95ca68360c01b610d58565b838015610bc45750825b8015610bcd5750815b8015610bd65750805b955050505050915091565b6000610bf76773fac194855af1f660c01b610d58565b610c0b6787dbe0f365f4f33b60c01b610d58565b610c1f67cb5cae8c14b0007760c01b610d58565b7f0000000000000000000000000000000000000000000000000000000000000000905090565b6000610c5b679ce31d0a4906846060c01b610d58565b610c6f67c863bb76fee7a24960c01b610d58565b610c8367ec2dfbeb4e3b6e9160c01b610d58565b600254905090565b6000610ca167a3513850834ea30a60c01b610d58565b610cb5671bf5d9b46446d73660c01b610d58565b610cc967e0255da39803eb7060c01b610d58565b600361ffff16905090565b6000610cea678b960d368f5bd6be60c01b610d58565b610cfe67bd312bb23ca2083960c01b610d58565b610d12677cf3f1dfbe11480f60c01b610d58565b60008281548110610d2657610d25611949565b5b9060005260206000200160009054906101000a900473ffffffffffffffffffffffffffffffffffffffff169050919050565b50565b610d6f67192c96980168a15e60c01b610d58565b610d836741b5348487a8f73b60c01b610d58565b610d97670a5471fa7a9cd01560c01b610d58565b6000808054905082600081518110610db257610db1611949565b5b6020026020010151610dc4919061188b565b9050610dda67d54f31ec318c399060c01b610d58565b610dee676a62713584b4ad2a60c01b610d58565b6000808281548110610e0357610e02611949565b5b9060005260206000200160009054906101000a900473ffffffffffffffffffffffffffffffffffffffff169050610e44679606940b9640ff7b60c01b610d58565b80600160006101000a81548173ffffffffffffffffffffffffffffffffffffffff021916908373ffffffffffffffffffffffffffffffffffffffff160217905550610e9967b9d7004dfd62346460c01b610d58565b600067ffffffffffffffff811115610eb457610eb3611978565b5b604051908082528060200260200182016040528015610ee25781602001602082028036833780820191505090505b5060009080519060200190610ef89291906110f4565b50610f0d67af4bc2eac382fa3860c01b610d58565b6000600160156101000a81548160ff02191690836001811115610f3357610f3261191a565b5b0217905550610f4c67a1e2e1a74ab21d2d60c01b610d58565b42600281905550610f6767829ce45f07db226d60c01b610d58565b610f7b671e8c0235796d921760c01b610d58565b60008173ffffffffffffffffffffffffffffffffffffffff1647604051610fa190611549565b60006040518083038185875af1925050503d8060008114610fde576040519150601f19603f3d011682016040523d82523d6000602084013e610fe3565b606091505b50509050610ffb679c4e19d70877c53860c01b610d58565b61100f675c2bb894645d8aa360c01b610d58565b8061106e57611028673232d740feb448f360c01b610d58565b61103c67c05e5d5c8cc0891760c01b610d58565b6040517fba31c4f300000000000000000000000000000000000000000000000000000000815260040160405180910390fd5b61108267dbfb40e9c7255e5460c01b610d58565b6110966786b7095b21db3f3960c01b610d58565b6110aa67b5cf81174e1446d860c01b610d58565b8173ffffffffffffffffffffffffffffffffffffffff167f5b690ec4a06fe979403046eaeea5b3ce38524683c3001f662c8b5a829632f7df60405160405180910390a25050505050565b82805482825590600052602060002090810192821561116d579160200282015b8281111561116c5782518260006101000a81548173ffffffffffffffffffffffffffffffffffffffff021916908373ffffffffffffffffffffffffffffffffffffffff16021790555091602001919060010190611114565b5b50905061117a919061117e565b5090565b5b8082111561119757600081600090555060010161117f565b5090565b60006111ae6111a9846116b7565b611692565b905080838252602082019050828560208602820111156111d1576111d06119b1565b5b60005b8581101561120157816111e788826112ff565b8452602084019350602083019250506001810190506111d4565b5050509392505050565b600061121e611219846116e3565b611692565b90508281526020810184848401111561123a576112396119b6565b5b611245848285611818565b509392505050565b600082601f830112611262576112616119ac565b5b813561127284826020860161119b565b91505092915050565b60008083601f840112611291576112906119ac565b5b8235905067ffffffffffffffff8111156112ae576112ad6119a7565b5b6020830191508360018202830111156112ca576112c96119b1565b5b9250929050565b600082601f8301126112e6576112e56119ac565b5b81356112f684826020860161120b565b91505092915050565b60008135905061130e816119ed565b92915050565b600081519050611323816119ed565b92915050565b600080602083850312156113405761133f6119c0565b5b600083013567ffffffffffffffff81111561135e5761135d6119bb565b5b61136a8582860161127b565b92509250509250929050565b60006020828403121561138c5761138b6119c0565b5b600082013567ffffffffffffffff8111156113aa576113a96119bb565b5b6113b6848285016112d1565b91505092915050565b6000602082840312156113d5576113d46119c0565b5b60006113e3848285016112ff565b91505092915050565b600060208284031215611402576114016119c0565b5b600061141084828501611314565b91505092915050565b600080604083850312156114305761142f6119c0565b5b600061143e858286016112ff565b925050602083013567ffffffffffffffff81111561145f5761145e6119bb565b5b61146b8582860161124d565b9150509250929050565b61147e8161176f565b82525050565b61148d81611781565b82525050565b61149c8161178d565b82525050565b60006114ad82611714565b6114b7818561171f565b93506114c7818560208601611827565b6114d0816119c5565b840191505092915050565b6114e481611806565b82525050565b60006114f7600083611730565b9150611502826119d6565b600082019050919050565b611516816117aa565b82525050565b611525816117d8565b82525050565b611534816117e2565b82525050565b611543816117f2565b82525050565b6000611554826114ea565b9150819050919050565b60006020820190506115736000830184611475565b92915050565b600060408201905061158e6000830185611475565b61159b6020830184611475565b9392505050565b60006040820190506115b76000830185611484565b81810360208301526115c981846114a2565b90509392505050565b600060a0820190506115e76000830188611493565b6115f4602083018761153a565b611601604083018661150d565b61160e606083018561152b565b61161b608083018461152b565b9695505050505050565b600060208201905061163a60008301846114db565b92915050565b6000602082019050611655600083018461151c565b92915050565b6000606082019050611670600083018661151c565b61167d602083018561151c565b61168a604083018461151c565b949350505050565b600061169c6116ad565b90506116a8828261185a565b919050565b6000604051905090565b600067ffffffffffffffff8211156116d2576116d1611978565b5b602082029050602081019050919050565b600067ffffffffffffffff8211156116fe576116fd611978565b5b611707826119c5565b9050602081019050919050565b600081519050919050565b600082825260208201905092915050565b600081905092915050565b6000611746826117d8565b9150611751836117d8565b925082821015611764576117636118bc565b5b828203905092915050565b600061177a826117b8565b9050919050565b60008115159050919050565b6000819050919050565b60008190506117a5826119d9565b919050565b600061ffff82169050919050565b600073ffffffffffffffffffffffffffffffffffffffff82169050919050565b6000819050919050565b600063ffffffff82169050919050565b600067ffffffffffffffff82169050919050565b600061181182611797565b9050919050565b82818337600083830152505050565b60005b8381101561184557808201518184015260208101905061182a565b83811115611854576000848401525b50505050565b611863826119c5565b810181811067ffffffffffffffff8211171561188257611881611978565b5b80604052505050565b6000611896826117d8565b91506118a1836117d8565b9250826118b1576118b06118eb565b5b828206905092915050565b7f4e487b7100000000000000000000000000000000000000000000000000000000600052601160045260246000fd5b7f4e487b7100000000000000000000000000000000000000000000000000000000600052601260045260246000fd5b7f4e487b7100000000000000000000000000000000000000000000000000000000600052602160045260246000fd5b7f4e487b7100000000000000000000000000000000000000000000000000000000600052603260045260246000fd5b7f4e487b7100000000000000000000000000000000000000000000000000000000600052604160045260246000fd5b600080fd5b600080fd5b600080fd5b600080fd5b600080fd5b600080fd5b6000601f19601f8301169050919050565b50565b600281106119ea576119e961191a565b5b50565b6119f6816117d8565b8114611a0157600080fd5b5056fea2646970667358221220ac599938fdd16b327c17b5bf2336a38f1076811210fb790baee9c5a4786ce70964736f6c63430008070033",
  "linkReferences": {},
  "deployedLinkReferences": {}
}